:020000040001F9
:1060000000400020597E01006B7E01006D7E010082
:106010000000000000000000000000000000000080
:106020000000000000000000000000006F7E010082
:106030000000000000000000717E0100737E01007E
:10604000757E0100757E010041AD0100757E010085
:10605000757E010000000000757E0100757E010064
:10606000757E0100757E0100757E0100757E010060
:10607000757E0100757E0100757E0100757E010050
:10608000757E0100E9AB0100757E0100757E01009F
:1060900099AC0100757E0100DF7D0100757E010075
:1060A000757E0100757E0100000000000000000008
:1060B00000000000000000000000000000000000E0
:1060C00000F002F800F0B5F80CA030C80838241829
:1060D0002D18A246671EAB4654465D46AC4201D120
:1060E00000F0A7F87E460F3E0FCCB646012633429D
:1060F00000D0FB1AA246AB46334318477C7200001F
:106100009C7200000023002400250026103A01D3D1
:1061100078C1FBD8520700D330C100D50B6070475F
:1061200010B56E2902D102F0B2FE10BD702902D165
:1061300002F049F810BD662902D106F0C3FD10BD7A
:10614000652902D106F0BEFD10BD672902D106F017
:10615000B9FD10BD612902D1C046C04610BD03681B
:106160001B0A01D380231943692902D101F0B6FF2C
:1061700010BD642902D101F0B1FF10BD752902D113
:1061800001F0ACFF10BD6F2902D102F085FF10BDF8
:10619000782902D102F004F810BDE92902D102F0F9
:1061A00021FF10BDE42902D102F01CFF10BDF5292A
:1061B00002D102F017FF10BDEF2902D102F078FFE3
:1061C00010BDF82902D101F0F9FF10BD0368DB0909
:1061D00001D380231943632902D103F0B0FD10BD20
:1061E000732902D103F0B3FD10BDE32902D103F0FE
:1061F000BDFD10BDF32902D103F0C0FD10BD00208C
:1062000010BD1FB50098019902F053FD04F008F984
:1062100004000020002106F013FC401C60600020F8
:10622000002106F0F7FBE06003F08EFF02F0E4FCD3
:106230001FBD05F021FB1146FFF7E3FF04F0C7FC8B
:1062400005F07BFE401E00BF00BF00BF00BF00BFC7
:1062500000BF00BF00BF00BF00BF00BF00BFF1D143
:1062600070470000401E00BF00BF00BF00BF00BF5E
:1062700000BF00BF00BF00BF00BF00BF00BFF1D123
:106280007047000070B505460C46164602E00FCC7C
:106290000FC5103E102EFAD2082E02D303CC03C530
:1062A000083E042E07D301CC01C5361F03E0217838
:1062B0002970641C6D1C761EF9D270BD70B5054640
:1062C0000C46132C04D0162C07D03B2C0FD109E020
:1062D000E0A1ED4804F0F1FF09E0ECA1EA4804F088
:1062E000ECFF04E0F6A1E84804F0E7FF00BF00BFC0
:1062F000FE4805F0B5F970BDF0B58BB00446FC481A
:106300000068002868D0FA48006804F074FD21880D
:10631000884261D100200590E088012836D1A0682C
:106320000078612806D062280DD0632814D0642834
:1063300024D11AE0EF480388EFA2142106A801F047
:10634000AFFE059021E0ED480388EBA2142106A8DA
:1063500001F0A6FE059018E0E9480388E6A21421A2
:1063600006A801F09DFE05900FE0E6480388E2A232
:10637000142106A801F094FE059006E0E2A2142183
:1063800006A801F08DFE059000BF05E0E3A21421F0
:1063900006A801F085FE0590D548016808469C30A6
:1063A00000BF00BF858B00BF06AE059880B203908A
:1063B00000200490CD4A10681268126891688847DE
:1063C0000290049800900298006887683246294637
:1063D000039B0298B84700BF0BB0F0BD7047FEB5F5
:1063E000D3A1A94804F069FF0A260196019EB000D6
:1063F00001F048FD0446002511E0A348483804F0A8
:10640000A7FE00280BD0A04804F022FFA90060508E
:10641000A8002258B8A19C4804F04FFF6D1CB5425B
:10642000EBDB0025002D0AD16068002806D1276823
:106430002046009701F057FD0098FEBD04E020467D
:1064400001F051FD5A20F8E7204601F04CFD00BF55
:10645000F3E7FEB5B7A18C4804F02FFF0A2601969A
:10646000019EB00001F00EFD044600250BE08648B9
:10647000483804F06DFE002805D0834804F0E8FE9B
:10648000A90060506D1CB542F1DB0025002D0AD13A
:10649000E068012806D1A7682046009701F023FD97
:1064A0000098FEBD04E0204601F01DFD5A20F8E7EB
:1064B000204601F018FD00BFF3E7FEB59EA172482B
:1064C00004F0FBFE0A260196019EB00001F0DAFC02
:1064D000044600250BE06C48483804F039FE0028DB
:1064E00005D0694804F0B4FEA90060506D1CB542A7
:1064F000F1DB0025002D0AD16069022806D1276949
:106500002046009701F0EFFC0098FEBD04E0204615
:1065100001F0E9FC5A20F8E7204601F0E4FC00BF56
:10652000F3E7FEB50A260196019EB00001F0AAFC31
:10653000044600250BE05448483804F009FE0028C2
:1065400005D0514804F084FEA90060506D1CB5428E
:10655000F1DB0025002D0AD1E069032806D1A769E7
:106560002046009701F0BFFC0098FEBD04E02046E5
:1065700001F0B9FC5A20F8E7204601F0B4FC00BF56
:10658000F3E7FEB50A260196019EB00001F07AFC01
:10659000044600250BE03C48483804F0D9FD0028AB
:1065A00005D0394804F054FEA90060506D1CB54276
:1065B000F1DB0025002D0AD1606A042806D1276A84
:1065C0002046009701F08FFC0098FEBD04E02046B5
:1065D00001F089FC5A20F8E7204601F084FC00BF56
:1065E000F3E710B5FFF7FBFE42490880FFF731FFE4
:1065F00042490880FFF761FF4149088010BD70B52E
:1066000004460D4601214D4804F024FD70BDD6B06E
:1066100046AD284604F0D6FD0546494800212860CD
:106620002846203004F0F1FD0546203D4B21C901EC
:106630001548483804F084FD42A1134804F03DFE9B
:106640000021414804F006FD00213C4804F002FD11
:1066500000207BE0446973636F6E6E6563746564EC
:10666000202852454D4F54455F555345525F544580
:10667000524D494E415445445F434F4E4E4543545D
:10668000494F4E290A0D0000E4210020446973633C
:106690006F6E6E656374656420284C4F43414C5F98
:1066A000484F53545F5445524D494E415445445F01
:1066B000434F4E4E454354494F4E290A0D000000AA
:1066C000446973636F6E6E65637465642028434F1D
:1066D0004E4E5F494E54455256414C5F554E4143D4
:1066E0004345505441424C45290A0D0038210020B1
:1066F0001420002008200020256400000A2000202B
:106700000C2000200E2000204552524F523A2055B6
:106710006E6B6E6F776E2063686172004552524FE8
:10672000523A20496E76616C6964206C656E000097
:10673000310000003200000033000000142200206D
:10674000C8D2010061000000FC21002084490880BB
:1067500046AD844E844F8549384606F05BFA019079
:1067600002F05CFA0391029031462846203004F092
:1067700048FD2846039B029A04F0E6FD00BF00BFD7
:106780007BA17C4804F099FD7B4800F01FF97BA1B8
:10679000784804F092FD7A4D774A106812681268C2
:1067A000516888470646356100BF00BF75A1714832
:1067B00004F083FD7449704804F030FF734D6E4A55
:1067C000106812681268916888470646B56000BF75
:1067D00000BF042568490868096809688A6929466C
:1067E00090470446002C04D0FF2113312046FFF7C8
:1067F00006FF67A5604A10681268126851688847EA
:10680000064600682946426A304690470446002CF6
:1068100004D0FF2119312046FFF7F1FE564D042622
:1068200001216020415531462846103000F03BF9E7
:106830000446002C04D0FF211E312046FFF7DFFE66
:106840004D4900200A1D107100BF00BF072354A24C
:106850000821494804F039FF0446002C04D0FF21E8
:1068600027312046FFF7CBFE41A1424804F025FD29
:1068700010234D4A0721404804F027FF0446002C0E
:1068800004D0FF212E312046FFF7B9FE3A4E7D2776
:10689000FF00394679430846444902F0B9F885B209
:1068A00000BF301DC58000BF00BF304604F0D8FED9
:1068B000314604A804F0A8FA04A83D4908602FA1B5
:1068C0002C4804F0FAFC03E02EA12A4804F0F5FC61
:1068D000FAE770B5284C00F09FF920600023A02251
:1068E0001946201D00F00EF9041F2046103000F05C
:1068F0007BF80446103C2046383000F075F804461A
:10690000383C0121602001552046103000F0DDF8B0
:106910002046383000F0D9F800BF2546254A2649E0
:10692000284601F0C3FE00230B22092111484838F4
:1069300004F070FC04461F4A204901F0B7FE122102
:106940001F4804F079FB13211E4804F075FB1E4C10
:1069500001252946204605F0EBF800BF70BD000078
:1069600008200020E3650100CDCC4C3D0024744993
:1069700062000000E42100203821002063000000B4
:10698000BD62010064000000F9620100DD630100E6
:1069900044454D4F2053454E534F52203100000087
:1069A0004D4F44554C4F310002CD01008A0200008A
:1069B000142000200060010005B7010041B2010071
:1069C000FC210020142200200020002070B5044685
:1069D00020680268D16888470546002D01D0284606
:1069E00070BD0020FCE7000010B5044644481F219C
:1069F0002060201D01F084FF00212320015501208B
:106A00004002A084204610BD704770B50446204661
:106A1000FFF7FAFF054604F0C4FE70BDF8B5044662
:106A20000E4617461D462320005D4019801C1F2876
:106A300001DD0120F8BD23210A5D211D50186A1CCB
:106A4000012101F036FF2320005D401CC1B223204C
:106A5000015523210A5D211D50183246012101F004
:106A600028FF2320005D401CC1B2232001552321B3
:106A70000A5D211D50182A46394601F0CBFE23201D
:106A8000005D4019C1B2232001550020D2E713B5A3
:106A9000044668468088A084022301AA1921204662
:106AA000FFF7BCFF1CBD13B50446012301AA19461C
:106AB0002046FFF7B3FF1CBD13B50446012301AA0E
:106AC0000A212046FFF7AAFF1CBD10B504461F216E
:106AD000201D01F015FF00212320015510BD0146A6
:106AE0002320405C002801DD081D70470020FCE7E2
:106AF00001462320405C70470146888C70470000A7
:106B0000D8D0010030B51D4C04600171C2800381F2
:106B10000479012C02D10024C4801BE00479032CE9
:106B20000CD1C488A02C01D2A024C480C488012523
:106B3000AD03AC420ED92C46C4800BE0C488202C97
:106B400001D22024C480C4880125AD03AC4201D900
:106B50002C46C480002B05D00489094DAC4201D9D4
:106B60002C46048130BD704770B504462046FFF7BF
:106B7000FAFF054604F015FE70BD0000E8D00100E4
:106B8000FF3F0000F8B504460F4615461E46142286
:106B90003946204601F03EFE2675A5610020A083FF
:106BA0002046F8BD70B504460E4600202070102126
:106BB000601C01F0A3FE0020608210223146601CA0
:106BC00001F028FEB0780002F178084360820025C9
:106BD00011E0022D01D0032D00D10BE0601C405DBF
:106BE000002806D0012020700021E170217120468C
:106BF00070BD00BF6D1C102DEBD32046F8E770B5BB
:106C000004460D46002020701021601C01F076FE25
:106C10006582204670BD00003648704736493749C6
:106C200001607047704770B504462046FFF7FAFFD1
:106C3000054604F0B6FD70BD3EB504463048007808
:106C4000002817D101A866DF00280DD16846008909
:106C50000090684603792BA20A212C4801F020FA03
:106C600001202749087004E00A2229A1274801F0E1
:106C700049FE00BF25483EBD70B506460C4620467D
:106C800077DF051E08D0072D03D0112D02D1042077
:106C900070BD00BF0320FBE70020F9E710B50446F4
:106CA00000F06CFD2068416920468847002010BD37
:106CB00010B5044601F075F8002800D110BD04207D
:106CC000FCE710B504461448FFF7BCFA1348FFF779
:106CD000B9FA002010BD10B5044640DF10BD10B554
:106CE0000448FFF79BFF04460D4A0E4901F0DEFC05
:106CF00010BD00001C200020F8D00100A8D1010028
:106D00002020002025752E2575000000402200203F
:106D1000756E6B6E6F776E0020A1070040420F000A
:106D200000600100256C0100FEB50C461546032CE1
:106D300001DD0320FEBD6846047006222946401C82
:106D400001F068FD00BF00266946002070DF07469D
:106D5000BE4201D00320EDE700BF0020EAE77CB58A
:106D600006460C461546684671DF002801D0032010
:106D70007CBD002C02D0684600782070002D05D024
:106D8000062200A90131284601F044FD0020EFE76A
:106D9000FEB50C4615462046FFF7AAFE1F2801DD6A
:106DA0000120FEBD2046FFF7A3FE002801D10320ED
:106DB000F7E700BF2846FFF79BFE06462846FFF789
:106DC0008EFE07462046FFF793FE01902046FFF710
:106DD00086FE33463A460090019972DF002801D0C2
:106DE0000320DEE700BF00BF2046FFF785FE064612
:106DF00078DF002801D00320D3E700BF0020D0E7D0
:106E000030B585B005460C46204604F0BDFC01288F
:106E100002D1022005B030BD204604F0B5FC0328A5
:106E20000DD1204604F0ADFCA02806D3204604F086
:106E3000A8FC0121890388420FD90320EAE72046F4
:106E400004F09FFC202806D3204604F09AFC012180
:106E50008903884201D90320DCE7204604F094FC32
:106E6000012805D100BF2089002801D00320D1E7E7
:106E7000204604F089FC012806D000BF208969491A
:106E8000884201D90320C5E71421684601F038FD86
:106E9000204604F079FC694608700020019000212A
:106EA0006846017200200390204604F06AFC014607
:106EB0006846018200BF20896946488200BF684653
:106EC00073DF002801D00320A4E700BF68684008F2
:106ED0004000401C686000209CE710B5044600BFDD
:106EE00074DF002801D0032010BD00BF6068400897
:106EF000400060600020F7E7F8B504460D46606882
:106F00004008400060600221606888436060132090
:106F10000090132D02D03B2D06D102E013200090EB
:106F200002E03B20009000BF00BF00BF0026A08C05
:106F3000009976DF0746BE4201D00320F8BD00BFAE
:106F40000020FBE7F8B506460C4600BF684600780F
:106F500001090901491C009168460078F021884325
:106F60001030009000BF204601F0E2FB85B22A46B7
:106F7000214668467CDF002800D1F8BD0320FCE7ED
:106F800070B506460C461546294620467DDF00288A
:106F900000D170BD0320FCE770B505460C462046C5
:106FA00078DF002800D170BD0320FCE770B50546EE
:106FB0000C46204679DF002801D0002070BD032058
:106FC000FCE7818470470146888C7047F8B5074616
:106FD0000C4600BF002520467BDF0646B54201D0A7
:106FE0000320F8BD00BF0020FBE7F8B507460C46BC
:106FF00000BF002520467ADF0646B54201D00320B7
:10700000F8BD00BF0020FBE7F8B507460C46154663
:107010002946204675DF0646002E00D1F8BD032024
:10702000FCE70000FF3F0000F0B58FB005460E46BC
:1070300000BF00BF3446204600F0BBFC0E9000BFEE
:107040000DAA0EA90120A0DF002802D003200FB056
:10705000F0BD00BF6946888EB08300BF00200C9051
:10706000BCE00C98317D814201DC002102E082000D
:10707000B16989580C4600BF00BF00BF6069002895
:107080000BD100BF00BF00BF208B002805D12046D8
:1070900004F073FB022800D19CE000BF00BF00BFDA
:1070A00000BF2746384600F084FC0E9000BF00BFAA
:1070B0002A20005D07462920005D0A9000BF00BF1E
:1070C000608B099000BF00BF208B089000BF00BFFD
:1070D00060690790204604F050FB06906879C10073
:1070E0002846803008180A9A099901AB86C3049093
:1070F000089800900EA90020079B069A00F09EFCBD
:10710000002801D00320A2E700BF68790B906979BD
:10711000481C6871890028462030445000BF00BFD9
:10712000274638460B9903F0EFFE00200A904AE00C
:107130000A982821095D814201DC002102E08200D9
:10714000616A89580F4600BF00BF3846089700F0B3
:1071500030FC0E9000BF00BF788B0890388B0790F2
:1071600078690690FF20A130405D41002846FF303D
:10717000A33008180899009101900EA90020079BE0
:10718000069A00F02EFD002801D003205FE700BF23
:10719000FF20A130405D0990FF20A130405DFF211C
:1071A000A131495D491CFF22A13251558100284679
:1071B000FF30413047503846099903F0A5FE0A9840
:1071C000401CC0B20A9000BF2820005D0A99884286
:1071D000AEDC00BF0C98401CC0B20C9000BF307DEC
:1071E0000C99884200DD3CE72879401C287100207A
:1071F0002DE7F8B504460D4616461F4600BFEA00C7
:1072000021468031885A33463A460021A5DF0028BE
:1072100001D00320F8BD00BF0020FBE7FFB587B019
:1072200004460D46174604F0ADF90646FFF7CBFEBF
:1072300006901098002813D000BF0026EA002146CF
:107240008031885A3B460AAA0021A4DF05900598A0
:10725000864202D003200BB0F0BD00BF0020FAE749
:10726000AA0021462031885804F087FA30210840CE
:10727000002841D0C849069888423DD0E900204600
:107280008030405A69460881AA002146203188583A
:1072900004F073FA10210840002801D0012100E019
:1072A0000221684681720021818105970AA8049015
:1072B00002A90698A6DF86B2002E1CD0082E1AD08E
:1072C000B648864217D0112E15D0B548864212D046
:1072D00000BF00200190EA0021468031885A3B46D9
:1072E0000AAA0021A4DF009000990198884201D0E9
:1072F0000320B0E700BF10E000BF0026EA002146EF
:107300008031885A3B460AAA0021A4DF05900598DF
:10731000864201D003209EE700BF00209BE7014684
:1073200000207047F3B58BB005460C98041D0C98EF
:107330000088512867D004DC012855D0502874D12A
:1073400004E052285AD053286FD149E060880A904F
:10735000002640E0B20029462031885804F00DFA9A
:1073600030210840002834D0F10028468030081829
:1073700081880A9881422CD1607F0002217F0843D6
:107380000990B20029462031885804F0F6F92021EE
:107390000840002804D002210998084000280ED196
:1073A000B20029462031885804F0E7F9102108403E
:1073B000002806D00998C007C00F002801D0032775
:1073C00000E0042732463946284603F0D9FC0DB0C8
:1073D000F0BD701CC6B26879B042BBDC022725E064
:1073E000052760880A9021E00C98067AA868002892
:1073F00002D03046A968884700BFE8E7208800220D
:107400001146A9DFE3E7A078012802D0022809D1BC
:1074100003E00627A0880A9005E00727A0880A90C5
:1074200001E002E0D3E700BF00E0D0E700BF0026A4
:10743000ACE0F10028468030415A0A9881427DD163
:10744000022F04D0062F60D0072F78D122E06846A3
:10745000868321798177218B0184618B4184204649
:107460001C30099007A8069000BF2869002801D0A9
:10747000012000E0002000280AD006980590286925
:10748000002803D02869059905F057FB00BF00BF0D
:1074900000BF78E0002006900790089009906846A9
:1074A0000683618B4183A18B818320461E30089027
:1074B0003C4801460EC9C0680493039202910590AE
:1074C000B100284620304058009006A8019000BF27
:1074D00000982030807A002801D1012009E00121A4
:1074E0000198017300984C30019905F0DDFA01987C
:1074F000007B002801D0002001E0FF200430694615
:107500008881208802A9A8DF3DE00020089009902A
:1075100068460684218B41842248103001460EC9FA
:10752000C0680693059204910790B1002846203068
:107530004058029008A8039000BF01E024E01CE03E
:1075400002982030407A002801D1012009E0012171
:107550000398017102982C30039905F087FA03987B
:107560000079002801D0002001E0FF2003306946A7
:107570008882208804A9A8DF05E0324639462846DB
:1075800003F0FEFB00BF00BF701CC6B26879B042BA
:1075900000DD4EE700BF1AE7FFFF000003300000E8
:1075A0000134000034CD01007047F0B587B00446C7
:1075B000208819287ED006DC102809D011282DD06B
:1075C000132878D159E0392876D05528F9D1A2E08E
:1075D000A68803F0D7FF05463146FFF7F2FC2046A8
:1075E0000E300690A01D059003F0CCFF05460196D5
:1075F0000598007802900598401C03900698049026
:10760000022168688843801C6860E868002803D00D
:10761000EF6801A80FC8B84700BF7EE0A0880690B9
:1076200003F0B0FF05467949FFF7CBFCA07913289A
:1076300006D0162802D03B2806D103E0162605E026
:10764000132603E03B2601E0A67900BF00BF03F04C
:1076500099FF0546069F0596022168688843686081
:107660002869002803D02A6938460599904728469A
:10767000143003F045FF00BF4FE000200590069056
:107680001E2168468182807D41084900491C684668
:107690008175807D02218843014668468175807D21
:1076A0001C21884301460C3168468175807D20216C
:1076B000884302E019E02FE02CE00146684681751E
:1076C0000721C1751021017600BF03F05BFF07465B
:1076D000FFF779FC064605AA00217FDF85B2002D61
:1076E00001D007B0F0BD00BF17E0A079002810D18D
:1076F00003F048FF05460126012E08D16868B04313
:107700006860A868002801D0A868804700BF00BF53
:1077100000BF02E000BF00E000BF00BF3C480078AF
:10772000C007C00F00280FD1394804F096F8002890
:107730000AD0384803F0EAFB0646374A374900F0DA
:10774000B5FF3348C046C046324D21462846FFF7B4
:10775000E9FD00BFC5E710B50B4600BF81B20029A7
:1077600000D010BD00BF00BFBFF34F8F2C492D4C80
:10777000E160BFF34F8F00BF00BFFEE7FEB50026FC
:1077800000BF002350222849082000F0E0FA0446F8
:1077900000BF2546002D06D000BF24A24521284663
:1077A000FFF7D9FF00BF00BF00BF26480068029066
:1077B00002A860DF002801D00720FEBD684671DF07
:1077C000002801D00720F8E76946002070DF002874
:1077D00001D00720F1E700BF1B4800F0EEFA84B2A9
:1077E000002C01D02046E8E700BF00BF174800F09A
:1077F000EDFA84B2002C01D02046DEE700BF00F095
:1078000027F80020D9E700BF70470000FFFF000005
:1078100030210020A02500200060010085AF01007C
:107820000400FA0500ED00E04C2200206E524635BF
:10783000313832322F62746C652F62746C652E633E
:107840007070000054CD0100AB750100A9750100F6
:107850003EB50020019002903224A000052101F0E5
:10786000D7F881B268468180FF24F534A000052155
:1078700001F0CEF881B26846C18000210181FF216C
:107880009131418100BF007801090901491C009133
:1078900068460078F02188431030009000BF00BF98
:1078A000052213A168467CDF84B2002C01D020465B
:1078B0003EBD00BF00BF0120400278DF84B2002C33
:1078C00001D02046F4E700BF00BF01A87ADF84B2F0
:1078D000002C01D02046EBE700BF00BF002077DF7F
:1078E00084B2002C01D02046E2E700BF0020DFE791
:1078F0006E5246357800000070B505460E460024ED
:1079000012E021016118E14A88181022294600F08E
:10791000E2FE002807D120012018DC494018007C35
:107920003070012070BD641CD94800688442E8D3DF
:107930000020F7E770B504460D46D54800680828D2
:1079400000D170BDD24909680A018918CF4A881848
:107950001022214600F05EFFCD480068010140186A
:10796000CA4940180574CA480068401CC8490860E4
:1079700000BFE6E770B586B004460020019000BF66
:1079800006E00F21091A615C02AA1154411CC8B219
:107990001028F6DB00BF002501A902A863DF064618
:1079A000B54202D0002006B070BD00BF6846007925
:1079B000F9E738B504460020009000BF608A6946A8
:1079C000088000BF2078002802D10120887017E0CD
:1079D00000BF601C054600A90231FFF78DFF00289B
:1079E0000ED100BF601C0546FFF7C4FF69468870D2
:1079F00000BF601C0546684681782846FFF79AFF5D
:107A0000009838BD7FB504460D46002006E00F21E2
:107A1000091A615C6A461154411CC8B21028F6DB91
:107A200000BF2A466946102064DF86B2002E02D0CD
:107A3000304604B070BD00BF0020FAE7FFB591B03A
:107A40000C461D461B9F1A9E13980F9008A8007F96
:107A5000C006C00F002805D108A8007F8006C00F0F
:107A6000002826D00020109010A98878062188438D
:107A7000801C10A9887000BF10A8007801090901B6
:107A8000491C10A801700078F0218843103010A91B
:107A9000087000BF00BF10A8407801090901491C07
:107AA00010A841704078F0218843103010A9487028
:107AB00000BF1C2108A800F023FF08A8017F017067
:107AC000007FC006C00F002805D108A8007F8006EF
:107AD000C00F002801D010A800E000200D90002069
:107AE00007906846807F082188431C99C9000822B6
:107AF0001140014368468177807F102188431D999A
:107B0000090110221140014368468177807F0621D8
:107B10008843811C68468177807F40084000BE42D0
:107B200001D0012100E00021C907C90F08436946BF
:107B3000887708A9087F8007C00F00280BD108A804
:107B4000007FC006C00F002805D108A8007F80066E
:107B5000C00F00280ED000BF6846007F0109090150
:107B6000491C68460177007FF02188431030694640
:107B7000087700BF08A8007F0007C00F002805D1C4
:107B800008A8007F4007C00F00280ED000BF68463D
:107B9000407F01090901491C68464177407FF02177
:107BA000884310306946487700BF142102A800F0CE
:107BB000A7FE029407A8039068460682878206956E
:107BC00000BF02AA08A91E9B1198A2DF80B20190F3
:107BD0000198002802D0019815B0F0BD00BF002028
:107BE000FAE7FFB587B00D4616461C46109F0020E9
:107BF00006906846807E06218843811C684681760F
:107C0000807E40084000BC4201D0012100E00021FC
:107C1000C907C90F08436946887600BF6846007ED9
:107C200001090901491C68460176007EF02188435C
:107C300010306946087600BF00BF6846407E0109E3
:107C40000901491C68464176407EF0218843103086
:107C50006946487600BF142101A800F051FE019545
:107C600006A80290684684810782059600BF01A994
:107C7000119A0798A3DF80B200900098002802D0E4
:107C800000980BB0F0BD00BF0020FAE79C22002056
:107C90002420002070B506460C461546294620468D
:107CA000FFF7B1FD70BDF8B55A480078002800D143
:107CB000F8BD59480068002801D1012000E00020EB
:107CC000054656480068002801D1012000E0002048
:107CD000064600BF002D14D1684651DF0446052C2E
:107CE00001D101250CE0002C06D000BF4CA2692177
:107CF0002046FFF730FD03E04749009809688847B0
:107D000000BF002E1AD150480088009069464F48A5
:107D1000006861DF0446052C01D101260DE0002C2E
:107D200006D000BF3EA280212046FFF714FD04E0EC
:107D30004648006839490968884700BF002D02D0CD
:107D4000002E00D000E0C5E700BF00BFB0E7FFB5E0
:107D500081B00C4616461F46002C02D1072005B004
:107D6000F0BD20468107890F002901D1012100E0E3
:107D70000021002901D10720F1E73448046032488E
:107D80000680334807603349019810DF0546002D0F
:107D900001D02846E3E701201E490870162026DF9F
:107DA000DDE710B511DF0446002C01D0012000E012
:107DB000002018490870204610BD0146002901D155
:107DC0000E207047154801600020FAE7014600299F
:107DD00001D10E207047104801600020FAE770B50D
:107DE0001B480068002811D01948006880470446E5
:107DF00000BF2546002D07D000BF09A2FF21343166
:107E00002846FFF7A8FC00BF00BF01E0FFF74BFFCB
:107E100070BD0000322000203820002034200020D7
:107E20006E524635313832322F6E6F726469632F6D
:107E3000736F66746465766963655F68616E646CB0
:107E400065722E6370700000302000202C2000200E
:107E500028200020957C0100074802680F210A4372
:107E600002600648804706480047FEE7FEE7FEE757
:107E7000FEE7FEE7FEE7000024050040A1AC01009C
:107E8000C160010070B5064600F0EEFE05683046A0
:107E90000B30C408E400B44201D8002070BD68680B
:107EA0002A46002818D00168A14211D30B4621466A
:107EB00008318B4208D3436801194B6003681B1BD0
:107EC0000B605160046001E041685160001D70BDAD
:107ED000024640680028E6D12146284600F0D4FE3C
:107EE0000028DCD170BD70B50446051F00F0BCFE53
:107EF0000068002C1AD0446801E020466468002C19
:107F000001D0AC42F9D301680A18AA4204D12A6808
:107F100005468918016000E0456028684119A142C2
:107F200005D16168696021684018286070BD6C6087
:107F300070BD4343514330B55C18010C130C0D4622
:107F400092B25D4380B251432C19054655430A0C49
:107F500009044D1962415843010C00044019514174
:107F600030BDFEB5054610460C46184373D0AE46EC
:107F70008C460020AD1A01469C4167D36646002717
:107F800001243D46B61A9D4102D313463A462124A8
:107F9000654676462F04360C3E432D0CB61A9D419D
:107FA00004D3150C1B042B4312041034654676468B
:107FB0002F06360A3E432D0AB61A9D4104D3150EEC
:107FC0001B022B4312020834654676462F073609FA
:107FD0003E432D09B61A9D4104D3150F1B012B43B7
:107FE0001201241D65467646AF07B6083E43AD082C
:107FF000B61A9D4104D3950F9B002B439200A41CFD
:1080000065467646EF0776083E436D08B61A9D41F1
:108010001AD392185B41641C16E000187646654638
:108020004941B71A9D410191009009D36046B11AA8
:1080300098418E468446009801990025401C69416C
:10804000DD0752082A435B08641EE6D57246634684
:1080500003B0F0BDFFE700200146C046C0462A46F7
:108060002346F5E710B50B460146184600F048FFD9
:1080700010BD00000FB41CB5084B06AA7B4469462E
:108080000090059800F01BFF04460020694600F0B0
:1080900029FF20461CBC08BC04B01847650E000030
:1080A0000FB47CB50C0009AA009001D00019401E45
:1080B000094B7B4469460190089800F000FF002CB2
:1080C000054603D06946002000F00CFF28467CBC22
:1080D00008BC04B018470000390E0000F7B50025B1
:1080E00075291068009914A611D000F03DFE0028F3
:1080F00002DA404211A608E0009909688A0701D512
:108100000FA602E0490704D50EA6012501E000F004
:1081100034FE009F0024243704E001F082FB30315C
:108120003955641C0028F8D12B4632462146009868
:1081300000F055FEFEBD0000000000002D00000014
:108140002B00000020000000F8B50F46018809054B
:1081500002D5224C7C4402E0204C7C440E3405467F
:108160000021243508E016071209360FA65D6E546B
:108170001E0732431B09491C16461E43F3D12246F3
:1081800004780023240705D5702F06D0002901D0DC
:108190000223113200F023FEF8BD01231032F9E76B
:1081A00070B504460D462146106800F0E6FD002338
:1081B000024629462046FFF7C7FF70BDD21DD308EF
:1081C000DB000CCBC0E730B40368202412682343E3
:1081D00003600823C36130BC0023B5E7704E000084
:1081E000F3B50446002081B020622046E16888474C
:1081F000002872D0252802D06268A168ABE0594FF0
:1082000000267F442046E16888472028054608DB91
:10821000312D06D2781920380078002801D0064385
:10822000F0E7B00701D5042086430020E06107464F
:10823000A0612A2D0AD0284603F026FB002827D06B
:10824000B8000019303D0090856119E00298BA002D
:10825000121902C8916102902046E1688847012FF7
:10826000054617D1E06900281FDA202086431CE06C
:1082700000980A2180694843009940193038886184
:108280002046E1688847054603F0FEFA0028EFD152
:10829000012F0AD02E2D08D12046E16888470546D7
:1082A000202006437F1C022FC3DBA069002803DACD
:1082B0004042A06101200643F00701D01020864310
:1082C0006C2D0BD0682D09D04C2D3CD06A2D38D0A8
:1082D000742D38D07A2D36D016E040E0E1682F4674
:1082E00020468847B842054609D16C2F29D0012085
:1082F0008002E168064320468847054604E06C2F6B
:108300001DD0FF2001300643002D28D028464138DB
:10831000192803D80120C0020643203520462660D4
:108320002946029A1646FDF7FBFE002810D00128C8
:108330000BD0F61DF008C0000830029055E7402031
:10834000E1E78020D5E70020D3E7361D02964CE711
:1083500062682846A1689047206A401C44E7206A6A
:10836000FEBD0000EA4D00000FB400B58DB010A9AD
:1083700009900B900020C04300910A9000200C90BF
:10838000074878440690074878446A4607900F9952
:1083900009A800F0ADFE0DB008BC04B018470000FD
:1083A0008F0D0000A90D0000FFB51D460027FF43FB
:1083B00083B05C68002001909E68A96904987F1CC6
:1083C00088470090296A88470028F6D10098401C09
:1083D0000CD0032040028443002E19DD600614D522
:1083E00000982B2809D02D280FD103E00020C0438E
:1083F00007B0F0BD012080020443A96904987F1CE6
:108400008847761E002E009002DD0098302803D0A9
:108410000598002825D035E00120A96940020443D1
:10842000761E04987F1C8847002E009003DD782874
:1084300005D0582803D00598002810D022E00598D0
:10844000002801D010281DD10120A96940028443D1
:10845000761E04987F1C88470090102002E00820B8
:1084600000E00A2005900DE00121059A49020C4325
:108470000199761E514308180190A96904987F1C40
:1084800088470090002E05DD0599009800F01AFE3F
:108490000028E9DAE96904988847A00502D4012098
:1084A000C043A5E7E00722D1600611D56005019819
:1084B00000D5404229680A1D2A600968220501D5B5
:1084C000087014E0220701D5088010E008600EE073
:1084D0002868011D29600068210502D501990170F5
:1084E00005E02107019901D5018000E001603846CF
:1084F0007EE7000070B50446C068810713D080068F
:1085000001D5A56A04E0A169606840182169451A8F
:10851000204601F017F9002206462946204601F0C0
:1085200041F8304670BD002070BD70B5002802D003
:10853000FFF7E0FF70BD0025074C6E1E08E02046E7
:10854000FFF7D8FF002800D03546206D44086400AE
:10855000002CF4D1284670BD88240020F7B51646BB
:108560000C46104600F07CF82078611C61280AD087
:10857000722802D0772839D102E00125002404E0D6
:108580000225042401E02D4D0824022203230127A3
:108590000878491C2B2806D0622807D02039C87FCC
:1085A000742807D008E01D431443F1E70420054375
:1085B0003C43EDE7102004430098214603F0AAF95C
:1085C000411C13D00021316171600121F560490225
:1085D000F1617061200704D530460222002100F0CD
:1085E000E1FF306D384330653046FEBD0020FEBDF2
:1085F000F8B50D460646124C206DC10704D041085F
:1086000004D044086400F7E7224610E05420FFF746
:1086100039FC070010D07908206D49000122114370
:10862000084354212065384600F06AF93A46294645
:108630003046FFF793FFF8BD0020F8BD0280000030
:108640008824002010B5002902D0FF22013201E069
:108650000122920201235B0201F01EF810BD00000E
:10866000FEB50446466900690F4F0190E568002099
:108670000090A80707D0204601F064F8304603F0C8
:108680000BF9002801DA3846FEBD280502D501980D
:10869000FFF729FC4C21204600F032F9206D4008FC
:1086A000400020650098FEBDFFFFFFFFF8B50746BC
:1086B00015460E461020FFF7E5FB040009D0676061
:1086C000A660E56000F0D8FA01682160046000202F
:1086D000F8BD0120F8BD034610B50B439B070FD131
:1086E000042A0DD308C810C9121FA342F8D018BA23
:1086F00021BA884201D9012010BD0020C04310BD1D
:10870000002A03D0D30703D0521C07E0002010BD7D
:1087100003780C78401C491C1B1B07D103780C788C
:10872000401C491C1B1B01D1921EF1D1184610BDE3
:1087300030B5441C03E00178401C00290DD08107AE
:10874000F9D10B4BDD0104C8D11A91432940FAD06D
:10875000001B0A0603D0C01E30BD001B30BD0A043A
:1087600001D0801E30BD0902FCD0401E30BD00008B
:10877000010101010346F0B50B439B072DD1244DA8
:10878000EF01042A29D308C810C95E1B9E43121F9B
:108790003E4017D0D8B2E1B2401A3106014310D1A1
:1087A00098B2A1B2401A310401430AD11802210241
:1087B000000A090A401A3102014302D1180E210EA3
:1087C000401AF0BDA342DCD018BA21BA884201D9C0
:1087D0000120F0BD0020C043F0BD002A01D10020DF
:1087E000F0BD03780C78401C491C002B0DD0A3422F
:1087F0000BD1521E09D003780C78401C491C002B69
:1088000003D0A34201D1521EEBD1181BF0BD0000D2
:1088100001010101F8B5042A2CD3830712D00B788B
:10882000491C0370401C521E83070BD00B78491C57
:108830000370401C521E830704D00B78491C037040
:10884000401C521E8B079B0F05D0C91ADF00202346
:10885000DE1B08C90AE0FDF715FDF8BD1D4608C975
:10886000FD401C46B4402C4310C0121F042AF5D210
:10887000F308C91A521EF0D40B78491C0370401C2F
:10888000521EEAD40B78491C0370401C012AE4D420
:1088900009780170F8BD134610B50446CAB21946EE
:1088A0001002821810048218204600F018F82046A2
:1088B00010BDD2B210B513029A1813049A1800F022
:1088C0000EF810BD01E004C0091F0429FBD28B077C
:1088D00001D50280801CC90700D0027070470029B2
:1088E0000BD0C30702D00270401C491E022904D3DA
:1088F000830702D50280801C891EE3E70022EEE791
:108900000022DFE7F8B507460B46394619438907C9
:1089100013D1164CE601042A0FD302CB0D1B8D4355
:10892000354202D102C0121FF5E7CBB20370401CE2
:10893000521E002B13D0090AF7E7002A14D0197829
:10894000521E5B1C0170401C002908D0002A0BD06D
:108950001978521E5B1C0170401C0029EDD1002AC1
:1089600002D01146FFF7CAFF3846F8BD01010101E8
:1089700082078B079A4237D170B5920F0AD0032431
:1089800002780B78401C491C002A2BD09A4229D12E
:108990002042F5D11D4EF40104C808C9951B95432A
:1089A000254010D19A4207D104C808C9951B9543A8
:1089B000254008D19A42EFD012BA1BBA01209A4240
:1089C00000D2404270BD12BA1BBA2DBA1824100052
:1089D000E0401900E140401A05D12E00E64002D1E6
:1089E000083CF4D1D01A70BD02780B78401C491CA9
:1089F000002A09D09A4207D102780B78401C491C02
:108A0000002A01D09A42EFD0D01A7047010101012B
:108A1000002203098B4273D3030A8B4258D3030B02
:108A20008B423CD3030C8B4221D312E003460B4311
:108A30007FD4002243088B4274D303098B425FD357
:108A4000030A8B4244D3030B8B4228D3030C8B4283
:108A50000DD3FF22090212BA030C8B4202D3121269
:108A6000090265D0030B8B4219D300E0090AC30B3E
:108A70008B4201D3CB03C01A5241830B8B4201D3EB
:108A80008B03C01A5241430B8B4201D34B03C01AD4
:108A90005241030B8B4201D30B03C01A5241C30A4C
:108AA0008B4201D3CB02C01A5241830A8B4201D3BD
:108AB0008B02C01A5241430A8B4201D34B02C01AA7
:108AC0005241030A8B4201D30B02C01A5241CDD24C
:108AD000C3098B4201D3CB01C01A524183098B4297
:108AE00001D38B01C01A524143098B4201D34B0180
:108AF000C01A524103098B4201D30B01C01A5241E3
:108B0000C3088B4201D3CB00C01A524183088B4269
:108B100001D38B00C01A524143088B4201D34B0052
:108B2000C01A5241411A00D20146524110467047C4
:108B30005DE0CA0F00D04942031000D340425340C9
:108B400000229C4603098B422DD3030A8B4212D389
:108B5000FC22890112BA030A8B420CD389019211BB
:108B60008B4208D3890192118B4204D389013AD0F8
:108B7000921100E08909C3098B4201D3CB01C01ACD
:108B8000524183098B4201D38B01C01A52414309E0
:108B90008B4201D34B01C01A524103098B4201D3CE
:108BA0000B01C01A5241C3088B4201D3CB00C01A3B
:108BB000524183088B4201D38B00C01A5241D9D253
:108BC00043088B4201D34B00C01A5241411A00D2D4
:108BD0000146634652415B10104601D34042002BD0
:108BE00000D54942704763465B1000D3404201B54F
:108BF0000020C046C04602BD70B5064C7C44064D00
:108C00007D4403E0206800198047241DAC42F9D15F
:108C100070BD0000C4480000C848000010B5020242
:108C2000C11504D00123DB071A43002914DBBE233E
:108C30005B1A0CD41146D9401C46203C02D4104685
:108C4000E04010BD2020C31A1046984010BDFF22FE
:108C500041001206914202D90020014610BDC01702
:108C6000C043C11710BD0000004870477C2400209D
:108C7000004870478024002000487047842400206A
:108C8000704770477047704738B504460A46002061
:108C9000694601F063FB002805D002462046009992
:108CA00000F0D7FD012038BD10B5012001F02CFBEC
:108CB00010BDF8B501F046FB054600200C4610201B
:108CC000C0460646A819A0420DD932466946002082
:108CD00001F044FB070001D101F016FB0098A0420F
:108CE00000D00546C419FFF7BFFFF61D0746056013
:108CF000F008C0004619284600F008F8B44204D035
:108D000031463868A21B00F0A4FDF8BD00210160C7
:108D10004160806070471020704770B504468569D7
:108D20000068C10601D5302600E02026C00707D024
:108D300070BD62683046A1689047206A401C20627E
:108D40006D1EF6D570BD70B5044685690078C00704
:108D500007D170BD6268A16820209047206A401C3E
:108D600020626D1EF6D570BD09684A0501D540B276
:108D70007047C905FCD500B2704709684A0501D59E
:108D8000C0B27047C905FCD580B2704770B50C46BB
:108D90000546012A05D02878800600D5EA69002317
:108DA00002E0012305E05B1C934202D2E05C002854
:108DB000F9D1A869E618C01AA861286AC018286203
:108DC0002846FFF7AAFF04E06A682078A968641CB7
:108DD0009047B442F8D32846FFF7B5FF70BDFFB502
:108DE00004460D4681B0243000902168880604D5E1
:108DF0001022E0699143216000E00120A84201DDDA
:108E0000471B00E000270498A1697A191018081A76
:108E1000A0612078C00602D42046FFF77EFF00261E
:108E200008E003986268A168805D9047206A401C52
:108E3000761C206204988642F3DB2078C0060AD5AF
:108E40002046FFF76AFF06E06268A168302090477D
:108E5000206A401C206238467F1E0028F4DC07E0B0
:108E600000986268A168405D9047206A401C2062BB
:108E700028466D1E0028F3DC2046FFF764FF2078AB
:108E8000000602D5022005B0F0BD0120FBE7116805
:108E90000268006A530501D5087009E0D30501D5C1
:108EA000088005E0130602D5C21705C100E008607E
:108EB0000120704701694A1C02610878704700B5BB
:108EC0008FB00291002105910549019379440391E6
:108ED000114604906846FFF783F90FB000BD00000B
:108EE000E5FFFFFF0A681070521C0A6070470CC94A
:108EF00008399A4202D2531C0B6010707047000070
:108F0000084B70B50D467B44FFF7D9FF0446284651
:108F100000F022F9002802D00020C04370BD204696
:108F200070BD000057300000F7B50446154686B006
:108F30002B487844002703C83E460090019111E079
:108F400007986A467100415A02A801F0B7F9411C1E
:108F500007D02178890603D5E269391891420ED8E5
:108F60003F18761C2078800602D5E069B84206DDFD
:108F7000AE42E5DB07987100405A0028E0D1A069B5
:108F8000C01BA0612046FFF7C8FE154878445A3838
:108F900003C800900020019116E041006A4607983E
:108FA000415A02A801F08AF90590401C0AD0002518
:108FB00005E0626802A8A168405D90476D1C0598B5
:108FC0008542F6D30498401CB0420490E5DB206A49
:108FD000C01920622046FFF7B6FE09B0F0BD0000C0
:108FE000CE400000F7B5D21D0025D20815A6D2004C
:108FF000F52905CA11D0002A05DA00214042914125
:1090000011A60A4608E0009909688B0701D50FA64A
:1090100002E0490701D50EA601251146009F002454
:10902000243704E000F02FFC30323A55641C02462D
:109030000A43F7D12B46324621460098FFF7CFFE70
:10904000FEBD0000000000002D0000002B0000000D
:109050002000000070B504460021243408E05507C4
:10906000D2086D0F303565545D072A43DB08491C73
:1090700015461D43F3D10468002310A2250708D527
:1090800020252C400C4304D0C46901230CA2641E8B
:10909000C461FFF7A4FE70BD10B5044621461068F8
:1090A000FFF76BFE002302462046FFF7D3FF10BDFB
:1090B000D21DD108C9000CC9CCE700000000000097
:1090C000300000003A2800D23038202302469A436C
:1090D000412A01D310463738884201D30020C043CB
:1090E00070470000026851181378016018467047F5
:1090F00010B5D1600549794451610549794411623F
:1091000000211161114600F03DFE10BDEBFFFFFF95
:10911000010800004268002A08D001680B78491C49
:10912000002B03D0521E06C0184670470121C160B3
:10913000881E70474268002A0BD0C3680168002B64
:1091400007D183688B4204D0491E521C06C0002000
:1091500070470020C0437047C068802108407047B6
:1091600070B50D4601461446D36850692A4602F090
:1091700071FC002808DA411C08D0E1680122400097
:10918000920311434008E160281A70BD204600F0A8
:10919000A9FA0020C04370BDC1684022114392016A
:1091A000914300220260C1604905890F01D08260AD
:1091B000704702694168891AC269891A81607047DB
:1091C000FEB504460121C0688905774B0843E0607D
:1091D000010310D599108843E060810606D4E26A45
:1091E00061688A4200D80A46511A21601843E0603B
:1091F00020346079FEBD9843E060800602D52046A9
:1092000000F0C6FA6949E0680140012903D0204610
:1092100000F068FABFE02168002600290BDAC94394
:1092200021600121A66009030843E0606068411CD9
:1092300061600078FEBD5E4908420DD005212660C0
:109240000903884340210843E06021696068401AAF
:10925000E169401AA0609EE02169002915D1C00390
:1092600013D4E069FEF70EFE0028206118D0E068F4
:109270000121C9020843E0608105890F03D1FF2164
:1092800001310843E0602069606060690090E06837
:10929000C1061BD5C0030FD5204600F053FA15E0D8
:1092A00020460321243020610120E061E0680902AA
:1092B000884301218902E4E721696068401AA169B5
:1092C0004118009802F0F0FB0028A0DBE068C00322
:1092D0002AD56168E06A884200D808462169451AA3
:1092E000E069471B1BD0A0690190204600F02AFAD4
:1092F00001984119A061009802F0D6FB002886DB96
:10930000E068012149040843E060000202D5A06939
:109310004019A061E1692069C91B45180DE020468C
:1093200000F010FAE769F5E725696168A069E76967
:10933000491BE56240186560A061E0681021884320
:10934000E0604005800F02D0204600F09BFFE068FF
:109350000121A66009030843E060000205D52069E9
:10936000E06260600120C043FEBD224639462846C7
:10937000FFF7F6FE411C0ED029180028E1620DD03F
:10938000401E2060681C6060E068012149040843B9
:10939000E0602878FEBD0020C043FEBD6560204629
:1093A000FFF7FAFEF7E70000000020008120000030
:1093B00040400000F8B505460C46C8680521C904C0
:1093C0008843012189050843E060800602D52046D4
:1093D00000F0DEF97149E0680140022903D020461F
:1093E00000F080F9BCE00521012249030140D203CD
:1093F00091420FD1C00306D56168E06A884200D867
:109400000846606006E02069E0626060606902F022
:1094100059FAA061A1680022EEB200290EDAE068D4
:1094200083050BD4C943A160092122604903084385
:10943000E0606068411C61600670ACE0E06801219A
:1094400049030843E060002020602069002831D1F2
:10945000606902F04BFA012527462437ED02002807
:1094600016D0A0898005800F08D0E069FEF70AFDBC
:109470000028206102D0E068284318E0012027611D
:10948000E061E068032109028843012189020DE0BF
:10949000E069FEF7F7FC00282061EFD0E068284380
:1094A000E0608105890F03D1FF2101310843E060AD
:1094B00020696060E2683A4F2569D0051FD5616870
:1094C000E06A884200D80846411B05D0224628465B
:1094D00000F012F9002843D1E068010204D5E562EA
:1094E00000206560A06053E0691CE1626160E16991
:1094F000491E3843A160E06030462E70F8BD10026E
:1095000001D53A4009E06068411C61600670E0687E
:1095100038430A2EE06006D00022E16A606881428A
:1095200003D90B4602E00122F7E70346A7895B1B3C
:109530007F0504D4E7699F4201DD002A1ED08142E5
:1095400000D801460F1A0020E5626560002BA0607C
:1095500009DD22461946284600F0CEF8002802D040
:109560000020C043F8BD002F08D0A069E562656007
:10957000C01BA061E06810210843E060E0680002C1
:1095800009D56168A069E562491B40186560A06162
:109590000120C043F8BD3046F8BD00008210000035
:1095A00000000100F8B5044616460D464769007BE9
:1095B000800730D0384602F099F900282BD1324686
:1095C0001026002A25D0012A02D0022A23D104E045
:1095D000204600F097FD45191BE0384602F072F96D
:1095E000E16831430028E16004DA204600F07AF8AF
:1095F0000120F8BDC9030BD56268E16A914200D829
:109600001146A26989182269891A814200DD08463B
:109610002D18002D01DA0220F8BDE16A6068E268C9
:10962000814206D29103E06203D5012149048A43B5
:109630003243A669AE4211DCE16A814201D90B4690
:1096400000E003469F192369FF1AAF4206DD8142FD
:1096500001D90F4600E007469F4206D12020024371
:109660000020A060A56220600DE0AD1BE669AE1B86
:109670008142A66000D90846C01A281A20605819ED
:10968000606020208243034802400020E2604034B2
:109690002072F8BDBFCFD7FF70B5C468A50713D03F
:1096A000650211D4D51FF93D0AD0FF3D6D1E07D0CC
:1096B000FF3DFF3D022D07D101462431012305E086
:1096C000074E5D1EB54201D3012070BD0161C3612B
:1096D00041600F2109028C431443C460002070BD17
:1096E000FFFFFF00C1688022114392039143C160D4
:1096F0000021816001607047F7B514460E4633487B
:10970000D5685769054209D03846A16902F0CCF9FD
:10971000002811DB2D48C0430540E5602B4632464A
:109720003846009902F0D4F94200A1695208B21AF1
:1097300089180028A16104D02046FFF7D3FF00203C
:10974000C043FEBD70B504460569C06A61688842C1
:1097500000D80846E1680522D2049143E160C903BC
:1097600014D5A84209D02246411B2846FFF7C4FF62
:10977000002802D00020C04370BDE5620020656073
:10978000A060E068012109048843E060002070BD0A
:1097900010B50446C06820218843E060A16AA06932
:1097A00088420ED02046FFF7CDFFE0680321090371
:1097B000884310210843E060A06AA0612069E0624C
:1097C00060600349E0680840E06010BD10000200DE
:1097D000BFBFFFFFF8B50646FFF74EFA00900546FB
:1097E00015E0002E02D0E068B0420FD1206828605A
:1097F0000098A1680768606888472046FEF773FBF9
:1098000000980068B84202D00098E8E725462C6826
:10981000002CE6D1F8BD10B500F07CFD00F06EFD27
:1098200010BD01468008081A02091018020A101813
:10983000020C1018C008820012185200891A01E0A8
:10984000401C0A390A29FBD2704710B500F0A2FD6E
:1098500010BD10B50346406801E00346406800288B
:1098600001D08842F9D31868C3188B4206D0CB1CAC
:10987000D808C000001D411A521A0146081D0A608E
:10988000FEF731FB10BD0B4670B502468907800814
:10989000084319469D08141AA941250908070543DC
:1098A00008092C194841250A01060D43010A2C1903
:1098B0004141200C0D0428430D0C00194D4100219D
:1098C00040194D41C00869070843E908840F8D001D
:1098D0002543840024184D4124196D41121BAB41CE
:1098E00007E00925ED432C11521963410024401C67
:1098F00061411C460A250026551BB441F1D270BDBA
:1099000010B5044600F084FD0068005DC007C00F7C
:1099100010BD00007047FFB50C461E468FB003CA4D
:10992000089009914F007D0D00D16D1E0021084661
:109930000020C0460321099A89050840002A03DA5D
:109940008200801840080840800D01280A9002DD3E
:109950000020C0430A90089807430DD0EF48F04913
:10996000281848430714189800281DD07542291E4E
:109970001DDD0A9842421BE01898012802D0002001
:10998000302104E00020F24305E02154401CB042A5
:10999000FBDB30460022189B002121540F998B607D
:1099A0000A60486013B0F0BDBD1B6D1CDFE70A9A6A
:1099B000002900DA69420BA800F082FD0BAB07CB4F
:1099C00003AB07C30899099800F0DEFD6B4607C397
:1099D0000146D4480918002D00910ADDD1490398A9
:1099E0000A9A4942401803A90390684600F0F1FF23
:1099F00007E003990A9A081803A90390684600F043
:109A0000BEFF6B4607C30004000C03D00020C04318
:109A1000410800E01046189A002A03D00022009264
:109A200015461EE0751E05D4FFF72DFF3032625536
:109A30006D1EF9D501220843079602D000227F1C33
:109A400004E02078302801D100227F1E002A0697EA
:109A500089D01EE0112D07DAFFF715FF303262556D
:109A60006D1C02460A43F5D1084303D00098002834
:109A700019D00EE00021681E05E0235C625C63548F
:109A80002254401E491C8142F7DBA81B401E07954B
:109A90000690079A18990020A0540F98079B069AE1
:109AA00081600CC07EE71126002018905BE7D21D74
:109AB000F0B50D460446D10893B0C90003C90C9017
:109AC0000D9101F0A3FE02460D98C00F01D02D208C
:109AD00007E02068810701D52B2002E04007C00F76
:109AE0004001032A0F9001D0072A05DB03462946CF
:109AF000204600F0A1FC0EE12078800601D5E76940
:109B000000E006272846652D04D0662814D0672D6E
:109B100069D12DE00020112F009001DB112300E01E
:109B20007B1C0CAA03A910A8FFF7F5FE11990026CB
:109B300010987D1C0E9142E001203B460CAAC00704
:109B40000B900120009003A910A8FFF7E4FE119DDF
:109B500012981099002600280E9501D1781C0D1836
:109B6000781B02D446427D1C761EE81B00903AE02A
:109B7000012F00DA01270020112F009001DD1123B1
:109B800000E03B460CAA03A910A8FFF7C4FE1199F8
:109B90003D46109800260E91217809070BD40E99A6
:109BA000A94200DA0D4603A9012D04DD4A19203A25
:109BB000D27F302A06D0B84201DA011D04DA012131
:109BC00000910FE06D1EEFE7002802DC86192D1AC8
:109BD00003E0411CA94200DD0D46801B401C0090A3
:109BE0000120C0070B902078000705D40098A842F8
:109BF00002DB0020C043009069460020C8720B9829
:109C0000012102AF0337C907884225D002201090F6
:109C10002B2011900B9800280BDA40420B902D203E
:109C2000119006E00B98FFF7FCFD30317F1E0B9082
:109C300039701099481E00291090F3DC0B98002809
:109C4000F0D111987F1E38702088000501D545207D
:109C500000E065207F1E387001A8C01BC01D0B905E
:109C60000F98002800D0012041190098C01709184A
:109C70000B980818A169081A401EA0612078C00638
:109C800002D42046FFF749F80F98002805D06268F3
:109C9000A1689047206A401C20622078C00625D524
:109CA0002046FFF73AF821E0002E07DB0E98B0427D
:109CB00004DD03A86268805DA16802E06268A168B3
:109CC00030209047206A761C401C20620098401E7D
:109CD000002800900AD100F0A3FBC0686268016808
:109CE000405CA1689047206A401C206228466D1E97
:109CF0000028D9DC07E062683878A1687F1C9047AB
:109D0000206A401C20620B99481E00290B90F2DC4F
:109D10002046FFF718F8032044E6000001FCFFFF8F
:109D2000104D0000E1DFFFFF10B54369002B02D0AA
:109D3000C046C04601E0FFF729F8012010BD1278A7
:109D4000014624310A7000224A700122ECE71168B2
:109D50000022D243E8E710B54369002B02D0C04689
:109D6000C04601E0FFF7E0F8012010BD128801466F
:109D7000243182840022C2840122ECE7116800228F
:109D8000D243E8E7F3B50C468FB000200C900120D9
:109D900000260E9008460C3003906269039801215A
:109DA0009047051E2ED0252D2DD0216A88470028EA
:109DB00018D06269039801219047216A88470028DA
:109DC000F7D16269411E0398904700E0761CA169B3
:109DD0000F988847216A88470028F7D1E1690F98D2
:109DE0008847DAE7A1690F988847A842074601D15A
:109DF000761CD2E7E1690F9888477F1C02D10C9846
:109E0000002877D06BE16269039800273D46394608
:109E100090472A280CD162690398012190470125B7
:109E200006E00A214F433F18303FEBD41020054392
:109E30006269039801219047014630390A2903D20B
:109E4000AC498F42DEDCECE7E90600D4AA4F6C286F
:109E50000AD04C2810D0682824D06A282ED0742824
:109E60000CD07A280AD00DE062690398012190474E
:109E70006C2823D004211CE020200543626903984C
:109E800001219047A760652865604FD026DC5828DF
:109E900039D01ADC452849D012DC252834D0412895
:109EA000B0D143E06269039801219047682802D04D
:109EB00008210D43E6E70120C002DEE70220DCE7CF
:109EC000462833D047289DD130E05B2870D06128E8
:109ED0002CD063286CD0642894D161E06F284FD0D7
:109EE00009DC662822D0672820D0692826D06E2871
:109EF00017D12EE0EFE070284DD073286FD0752871
:109F00004ED078280DD154E0A1690F9888472528B4
:109F1000054600D16CE7E1690F9888476D1C00D1B8
:109F20006DE7DCE00A224CE00A2252E001202346E1
:109F30006A460F99C043C046C046C5E04021284646
:109F4000234608436060A80701D5002239E00022BB
:109F50003FE0E80700D020E72068011D216000688D
:109F6000290501D5067018E7290701D5068014E7F1
:109F7000A90703D5F117066041600EE706600CE7FC
:109F800040212846234608436060A80701D50822DF
:109F900017E008221DE0594928460840606016E095
:109FA00040212846234608436060A807BCD5B9E78E
:109FB00015E04021284608436060A80707D52346DE
:109FC000102201200F99C043C046C0467CE01022F9
:109FD000234601200F99C043FEF7E6F974E0002103
:109FE00063280B460191009102910D9102D05B28EC
:109FF00007D03BE0E80601D40120A06001200090DA
:10A0000034E0E06801210D906269039890475E2872
:10A0100007D101200190E06801210D906269039849
:10A0200090472169002906D10B4604AA8F00491CDC
:10A030000829D351FADB002851D02169002926D004
:10A040000298401C029062690398012190475D28A4
:10A05000F1D10198002808D0002004AB8100401CF9
:10A060005A58D24308285A50F8DB04AB206900281C
:10A0700020791CD04007029A00980D9B009222463E
:10A0800002901F480F991DD5C046C0461CE0C1175D
:10A09000C90E09184A114909930004AA9A184901DE
:10A0A000411A13680120884003431360CBE740073F
:10A0B000224613480F9902D5C046C04604E0C04668
:10A0C000C04601E0C046C04600280ADA401C06D15E
:10A0D0000E98002803D00020C04311B0F0BD0C98AA
:10A0E000FBE7E90702D10C99491C0C9136180020B6
:10A0F0000E9052E6CCCCCC0CFFFFFF7FF1F7FFFFB8
:10A10000FEFFFFFF10B50146C268900703D090061E
:10A1100007D5886A0AE000F08BF901210160881EEA
:10A1200010BD8B694868C0180B69C01A40310B7AA2
:10A13000002B02D0497A401A10BD1103FCD500282B
:10A14000FADD401E10BD000010B543485421FEF753
:10A15000D7FB42485421FEF7D3FB41485421FEF778
:10A16000CFFB40483C493D4B404A01603E480360BC
:10A170003B4810605A1C0A65411C196501210165A4
:10A180003C48354A3AA17844FEF7E8F9002804D162
:10A19000384878440C3800F06FFC38482F4A36A114
:10A1A0007844FEF7DBF9002804D1344878440C38B1
:10A1B00000F062FC32482A4A2FA17844FEF7CEF91B
:10A1C000002804D12E4878440C3800F055FC402378
:10A1D0002148DC0000212246FFF75EFA002804D067
:10A1E000244878445C3800F047FC1C482246402351
:10A1F0000021FFF751FA002804D0204878445C3849
:10A2000000F03AFC1648224610230021FFF744FADA
:10A21000002804D01A4878445C3800F02DFC10BDAA
:10A220000F4870B5006D44080B486400FEF718FA3B
:10A230000A48FEF715FA0A48FEF712FA09E0206DFF
:10A24000450820466D00FEF70BFA2046FDF74BFE51
:10A250002C46002CF3D170BD88240020DC24002083
:10A26000302500202021002024210020282100204A
:10A27000720000003E2C0000770000002B2C000034
:10A28000192C000070B505460A4C0B4E0EE0206DEF
:10A29000C00708D0AC4206D03146E068814302D105
:10A2A0002046FEF727F9206D44086400002CEED10B
:10A2B00070BD0000882400200202000070B5164620
:10A2C0000C46054600F0A4F80368FF200230C05C8D
:10A2D000012807D0FF2C0ED8185D00280BD00120D4
:10A2E0002C7070BDFF333246214608331868C318FE
:10A2F0002846984770BD0020C04370BD10B50028A7
:10A3000001D000F07FF810BD10B500F0BBFBFFF7E7
:10A31000F5FF10BD10B5002102A000F093FB012055
:10A3200010BD00005349475056464E3A20507572B2
:10A3300065207669727475616C20666E2063616C4D
:10A340006C65640001226946114B120382188A422F
:10A350001A6001D8114670471960704770B50C4CEF
:10A360006D46012636032368AD1B9A18AA420ED803
:10A37000AD1A9019EE0F75196D10AA18904200D9F8
:10A380001046C01D0B60C208D200D01A226070BDFA
:10A390002C21002010B500F00EF80169002903D02F
:10A3A00000220261884701E08068804700F040FB9E
:10A3B00010B500F03DFB70B500F036F804680546B6
:10A3C000002C15D12020FDF75DFD040012D00020E7
:10A3D00009492C6003C4094921602071A060E06034
:10A3E00007492061083C002901D000F073FBE061BF
:10A3F000204670BD00F01CFB00000000B1A301006E
:10A400000000000001491820ABBEFEE72600020054
:10A4100010B500F005F8001D10BD00BF2526000096
:10A420000048704784250020004870479825002088
:10A43000004870479C250020F8B51F4604460123BC
:10A440000068DB02032601461840072A05DB0028C6
:10A4500001D017A506E017A504E0002801D016A535
:10A4600000E016A5102081432160A069C01E002FC6
:10A47000A06101D0401EA0612046FEF74EFC002FD7
:10A4800009D038466268A1689047206A401C206263
:10A49000C01C206206E0206AFAE762682878A1689A
:10A4A0006D1C9047761EF8D22046FEF74CFCF8BD96
:10A4B0004E414E006E616E00494E4600696E660068
:10A4C000F7B516468AB02F4878446C4603467C336D
:10A4D000C06F5A689B680DC42A487844763003AC34
:10A4E0000DC80DC43720C001081837211B30FEF7F6
:10A4F0009DFA05460C46803D1B3C02D56442012076
:10A5000000E00020002709900FE0E0070BD00C20AE
:10A510001C497843794432464C394118684600F06A
:10A520002EFA6B4607C364107F1C002CEDD1154F2B
:10A530007F442C3F15E0E80711D02001C0190EC858
:10A540000691089307920068F04201D1981908908B
:10A55000324606A903A800F012FA03AB07C36D1038
:10A56000641C002DE7D1324669460998002803A8EB
:10A5700002D000F02EFA01E000F001FA0A9B07C3B6
:10A580000DB0F0BD402B0000034640000A4610B558
:10A59000400D0BD00121C9070F24A40200191C0390
:10A5A00064082143540D2143D20207E00021012019
:10A5B000F2E7D40F490021435200401E0029F8DA87
:10A5C000DB0FDB07184310BDFFB50D46144685B001
:10A5D0004868516801F002F900910190A868A168EB
:10A5E00001F0FCF802910390A868616801F0F6F8A8
:10A5F000029A12188242029201D2012000E0002049
:10A60000019A0B18D2180028019202D08A4202D96E
:10A6100003E08A4201D2012000E0002000990818DE
:10A6200000906868A16801F0D9F8029A1218824275
:10A63000029201D2012000E00020019A0B18D218EA
:10A640000028019202D08A4202D903E08A4201D254
:10A65000012000E000200099081800902868216877
:10A6600040004900400849084018EE49471814E0E6
:10A6700001994000C90F08430090019802994000D9
:10A68000C90F08430190029803994000C90F08437D
:10A690000290039840007F1E039000980028E7DA9C
:10A6A0000898002801D0E04E00E00026B74228DAE2
:10A6B000F71BF806C00E15D0029B2021091A039A39
:10A6C0008B401A430392029A019BC2408B401A436B
:10A6D0000292019A009BC2408B4000991A4301925A
:10A6E000C14000917A110BD06B460320811A01D52D
:10A6F000002101E0890059588700401ED951F5D545
:10A70000374603980299002800D001200143089899
:10A710000291002808460CD0002800D001200199A1
:10A72000019A490508430121D20AC902D2020192C5
:10A7300000E001210E9B0122D207012B02D0002B49
:10A7400003D013E0002807D116E0904204D89042CD
:10A750000CD1019B0B4209D0019B5918019105D1E5
:10A760000099491C009101D17F1C0092002803D060
:10A77000102108460020C04628682168019B009AE5
:10A780004840C10F0598C90739430EC009B0F0BD54
:10A79000FFB587B0099A089808995368926840688D
:10A7A000896896460022039317469446089A1268D1
:10A7B0005300099A5B081268520052089A1A9B4B80
:10A7C000D4180A9A002A01D0352200E040220692CD
:10A7D0000022012315460492DB07059324E0002D97
:10A7E00005D175460346039E4D1BB34109D37546FB
:10A7F0006646039B491B049D9841059B7519AC4611
:10A800005F4163463B4308D0059B049EDD07760805
:10A810002E435B080496059301E0521E641EC50F8B
:10A82000ED0749184041521C069B9A42D7DB002D88
:10A8300004D17546039A6B1A824101D203200CE0C1
:10A84000039A0B466B404240134303D0014303D0AD
:10A85000012002E0022000E0002061460191002179
:10A86000009702910A99002905D0614640020143F0
:10A870006D4B019102E08007002302909C423ADA7E
:10A880001A1BD006C00E15D0029D2021019C091A6A
:10A89000C5408C402543029C8C4000D001242543B8
:10A8A000019C02953D46C4408D4039462C43C14031
:10A8B0000194009154111DD06D46022100220229FD
:10A8C0000CD10320001B07E0002804DB8600AE59F2
:10A8D000002E00D00122401C0328F5DB081B02D506
:10A8E00088002A5004E08000285810438A00A850AD
:10A8F000491EE3D51C460A98002802980CD000286F
:10A9000000D001200199019A490508430121D20A8A
:10A91000C902D202019200E00121109B0122D2075C
:10A92000012B02D0002B03D013E0002807D116E042
:10A93000904204D890420CD1019B0B4209D0019B5C
:10A940005918019105D10099491C009101D1641C4D
:10A950000092002803D0102108460020C046089825
:10A960000999019A0068096848400099C30F07983F
:10A97000DB0723430360826041600BB0F0BD1FB56D
:10A98000002300920A46014601A8FFF71DFE01AB15
:10A9900007CB04B010BD1FB5012300920A46014643
:10A9A00001A8FFF711FE01AB0F2407CBA402C30FD0
:10A9B0004000DB074008001B002900DB00204900A5
:10A9C00000054908CC0A204349051843D20A11431F
:10A9D000DFE71FB5002300920A46014601A8FFF7F2
:10A9E000D7FE01AB07CBD4E71FB5012300920A467F
:10A9F000014601A8FFF7CCFE01AB0F2407CBA40250
:10AA0000C30F4000DB074008001B002900DB0020CB
:10AA1000490000054908CC0A204349051843D20AD9
:10AA20001143B6E702C0FFFF013C0000FF3F0000FA
:10AA300010B5002000F076F8C046C0460120FFF7B0
:10AA4000E1FC10BD70B505460C460A2000E06D1C07
:10AA500000F061F8002D06D028780028F7D102E038
:10AA6000641C00F058F8002C02D020780028F7D1A0
:10AA70000A2000F050F870BD10B500F059F8FFF74B
:10AA80003DFC10BD10B5012805D0002103A0FFF743
:10AA9000D9FF012010BD09A1F8E700005349475232
:10AAA000544D454D3A204F7574206F66206865619E
:10AAB00070206D656D6F7279000000003A20486566
:10AAC0006170206D656D6F727920636F7272757041
:10AAD0007465640010B58820FDF7D4F9002801D012
:10AAE0000021017010BD802904D8002802D001780F
:10AAF000002901D000207047012101700830704703
:10AB0000002803D002460832914201D0002070474D
:10AB100000210170704708B5694608700320ABBE7C
:10AB200008BD704710B500F01DF8FFF7E7FB10BD3A
:10AB300010B5014602A0FFF785FF012010BD0000FF
:10AB400053494752545245443A20526564697265EC
:10AB500063743A2063616E2774206F70656E3A20CB
:10AB60000000000010B5002102A0FFF76BFF0120DC
:10AB700010BD0000534947414252543A2041626E91
:10AB80006F726D616C207465726D696E6174696F4E
:10AB90006E00000030B58C180278401C13071B0FA4
:10ABA00001D10378401C120906D10278401C03E051
:10ABB0000578401C0D70491C5B1EF9D101E00B703B
:10ABC000491C521EFBD1A142E6D3002030BD10B576
:10ABD00001F0C7FA01F0C4FAFBF719FD10BD10B57A
:10ABE000002100F012FB10BDF8B5254800210160DE
:10ABF00041608160C160234A11605068224E002884
:10AC000008D0B36AF06A01252D065B190024604163
:10AC1000B362F062002050603469601C2FD01B4882
:10AC2000002740687169401A05022D0A2420444318
:10AC3000B06822185068A8420ED8B3692D1AC719F7
:10AC4000146A002B03D0D1699069984702E091699A
:10AC5000D0698847601CE9D1B178F078814206D18B
:10AC6000401CC0B2F070022801D10020F070000634
:10AC70000749800D0F500120064900050860F8BD06
:10AC8000401101400011014040200020001501400A
:10AC90005C20002000E200E010B501F081FB10BD57
:10ACA00030B42148214A018CCBB20121012B17D1AC
:10ACB000848C240714D1048D2406250F03D1858D9F
:10ACC0002D062D0F0FD0240F012C03D1858D2D06BD
:10ACD0002D0F08D0032C03D1848D2406240F02D01D
:10ACE000012B07D014E0124B53600123114CDB03FE
:10ACF000A36102E0838C1B070AD1038D1B061B0F87
:10AD0000042B05D1808D0006000F01D10A48816017
:10AD100091610A48002242608205916041680029E1
:10AD2000FCD030BC70470000C00F00F000050040B0
:10AD3000DFFF07C0006C004000060040000100403B
:10AD40000C4841680A060C4904D5CA69002A01D09A
:10AD5000012106E0406840070AD58868002807D02E
:10AD6000002106480068002802D0044A9268104773
:10AD700070470000002300400021004070200020A8
:10AD800070B504460D461646032D04D0042D09D097
:10AD9000052D15D10DE06069002802D030466169AB
:10ADA00088470DE0A069002802D03046A169884795
:10ADB00006E0E069002802D03046E169884700BF1C
:10ADC00000BF70BD70B504460D46204600F013F874
:10ADD000298888420ED1EE88142E0AD82D200655D7
:10ADE00000212E2001552D20025D201DA968FDF7B0
:10ADF00011FD00BF70BD01460846303000BF00BFE6
:10AE0000828B104670470000F3B599B004461A983B
:10AE100014212060201DFDF773FD142120461830F9
:10AE2000FDF76EFD00212C2001552D2001552E200F
:10AE30000155314914A8FBF7B5FE054600200C2248
:10AE4000142302900093019203900123221D2946AE
:10AE50002046303000F0A6F80446303C27490FA8C1
:10AE6000FBF7A0FE05460020102214230290009359
:10AE700001920390012322461832294620469C3035
:10AE800000F090F804469C3C204630300D906C3029
:10AE90000E901B490FA8FBF785FE054602230DAA5D
:10AEA000294605A8FBF76EFE05AE256828680268EE
:10AEB00091688847074600683146026838469047DF
:10AEC00025461049266803C904910390306802683A
:10AED0009168884707460499039802910190294692
:10AEE00038460C30029B019A01F052FE00BF00BFB1
:10AEF00020461BB0F0BD000012CD010022CD0100A4
:10AF0000F2CC0100D4CC01008183704710B5044617
:10AF1000204619492160002101714171816001467B
:10AF20000C31164AC26000224A6000BF08460C3845
:10AF3000002141618161C16100BF04461048602168
:10AF4000206020462030FDF7DBFCC0212046803009
:10AF5000FDF7D4FC60212046FF304130FDF7D0FCE6
:10AF60000021FF20A130015530212046FF30A330C1
:10AF7000FDF7C4FC204610BDA8D0010020D101007F
:10AF8000C0D0010070B50446254605482060204623
:10AF90000C3001F027FE04460C3C204670BD00003A
:10AFA000A8D00100FFB583B0044616461F462546CB
:10AFB000049801900C980290142228460199FDF7FC
:10AFC00029FC2C466E612F83029868830020A88399
:10AFD00000BF00BF20210D9808550E9860620F98A1
:10AFE000C1B2282001550021292001552A200155F0
:10AFF00020462C300022026042608260C260026102
:10B0000042618261C26100BF01602C3800BF00BF95
:10B01000044620464C30026042608260C260026199
:10B0200042618261C26100BF01604C3800BF00BF55
:10B030000446204607B0F0BD70B504460D46182101
:10B040002046FDF75DFC2946204600F0D9FF20464A
:10B0500070BD0000F8B504460D462F463E4600BFC1
:10B0600000BF00BF00202056401C002804D124222D
:10B07000084909A000F0EBFF00BF002E03D0E168F3
:10B080006068086002E021696068086000BF00BF76
:10B090002046F8BD30D301006F626A2D3E70696EA4
:10B0A00020213D202850696E4E616D65294E430078
:10B0B00070B50446006801220369002120469847C4
:10B0C0000546401C0ED0206802220369002120465C
:10B0D000984706462068002203692946204698477B
:10B0E000304670BD0020C04370BD000070B40849F8
:10B0F00001600021074A10230D468C001659864234
:10B1000000D11551491C5B1EF7D170BC704700007F
:10B11000D8D101002423002010B5001D01F09EF8B5
:10B1200010BD10B50C46001D01F022F9204610BDDF
:10B130001C22514310B508180C3000F055F810BD12
:10B1400070B504460D46001D01F05EF8656470BDE3
:10B1500010B5001D01F01BF910BD000070B50E46C2
:10B160000E490160002141608160154602231C22C6
:10B170000B490C3000F060FB04464B200C3CC00136
:10B1800060642A463146201D01F078F822460549C0
:10B19000201D01F0E3F8204670BD000004D201003C
:10B1A000DFAB010031B1010001688968084708B5CB
:10B1B0000090083001F040FB08BD10B5083001F0E8
:10B1C000A3FB10BD10B50446054820600020A06018
:10B1D000E06020616061034801F0B6FB204610BDCD
:10B1E00014D20100A9B101000168002900D008476C
:10B1F0004368002B04D00146826908311846104785
:10B200007047016000214160704700224260826106
:10B210000160704710B51C46FFF7A0FF214648307B
:10B2200000F05CF84838034901600349C1640349F0
:10B23000816410BD28D2010074D2010040D2010007
:10B2400010B5483000F06EF8483810BD0020704747
:10B2500010B504464069FDF768F9606900F072FEB8
:10B2600010BDF8B58E180D4607460C46B14209D000
:10B270003868816A38468847411C03D02070641CB6
:10B28000B442F5D1601BF8BD002070470020704724
:10B29000F8B58E180D4607460C46B14209D03868FD
:10B2A0002178426A641C38469047401C01D0B44261
:10B2B000F5D1601BF8BD002070470FB470B505468E
:10B2C00006AC4069FDF731F9224668690599FCF73B
:10B2D000C9FE70BC08BC04B01847000010B584B0AB
:10B2E00000F0A2F804460B4820600B486060002084
:10B2F0006061224609A16846FCF7BCFE08A16846C9
:10B30000FDF776F900216061FDF79CF9204604B055
:10B3100010BD000084D20100B8D201003A257000AF
:10B32000772B000010B50446054820600548606092
:10B330006069FDF795F9204600F088F810BD00001F
:10B3400084D20100B8D2010070B515461E460446ED
:10B35000FFF733FFE661A56101F0B4FAA269E16984
:10B36000821800234B412046FFF721FF70BD10B526
:10B370000446C36882688169C06952184341204607
:10B38000FFF715FF20462030FFF72EFF10BD007B92
:10B390007047000070B506460C480D460468002C46
:10B3A00012D0A06800280CD02A463146FDF7E2F9F9
:10B3B000002806D1A068FDF7BBF9A84201D12046BC
:10B3C00070BD6468002CECD1002070BD14210020F9
:10B3D000064B03600023436081600273002903D0A1
:10B3E00003490A684260086070470000DCD201002F
:10B3F000142100200A4901608168002905D0094A0A
:10B400001168814202D14168116070474A688242E6
:10B4100003D0114652688242FBD142684A607047AD
:10B42000DCD201001421002010B5054A04C000221E
:10B43000FFF7CEFF001F034901600349416010BDC3
:10B44000D8D10100ECD2010018D3010010B5001DC5
:10B45000FFF7D0FF001FFFF749FE10BD10B50446EF
:10B460004068002803D0FFF792FF012801D0002098
:10B4700010BD606810BD10B504464068002803D0B8
:10B48000FFF785FF002801D0002010BD606800286C
:10B49000FBD0001F10BD4068002800D0012070477D
:10B4A00010B54068002804D0FFF771FF002801D0D4
:10B4B000002010BD012010BD0068704710B5044683
:10B4C00000202060606008782F280FD1487800287D
:10B4D0000CD04B1C00211A46236010782F2807D06F
:10B4E000002807D0491C521C2260F6E7204610BDF8
:10B4F000501C20601846FFF74DFF6060204610BDCD
:10B5000070B50546C0680024002808DD6868A10001
:10B510004058FFF769FEE868641CA042F6DC70BD85
:10B5200070B504460848206000206060A160E060BB
:10B530008800054600F039F92A460021FDF7ABF9ED
:10B540006060204670BD000028D30100F8B50446B5
:10B550000B4820600025E0682F4600280ADD60685F
:10B56000AE00805900F01DF960686D1C8751E068DD
:10B57000A842F4DCE760606800F013F92046F8BDEB
:10B5800028D3010070B517480078C007C00F002805
:10B5900025D1144800F061F9002820D0124C25462E
:10B5A0001248206000206060A860E86028610421E3
:10B5B00028461430FFF7B4FF0546143D00BF2C4663
:10B5C0000B4828600020C043A08400BF2646094ADB
:10B5D00009493046FDF76AF80248C046C0460248AD
:10B5E00070BD0000342100207427002030D10100FC
:10B5F0006CD1010000600100FDB5010070B504468A
:10B6000025460548206020461430FFF79FFF04467A
:10B61000143C204670BD000030D10100F8B506464C
:10B620000C46306802689168884700900098074689
:10B630000C37202000F0BEF8054600210160416073
:10B640008160C160016141618161C16100BF0460CD
:10B6500000BF00BF2946384601F08DFA00BFF8BD93
:10B66000F8B5044620680268916888470646006875
:10B67000C168304688470090002801D00098F8BD86
:10B680006020005D002815D000BF0021602001551A
:10B6900020680268516888470746006822463832A9
:10B6A000214610318368384698470090002801D021
:10B6B0000098E4E7206802685168884705460068FA
:10B6C000211DC26828469047D9E7FFB581B00446DE
:10B6D0000E461746012160200155092E09D1206828
:10B6E000026851688847054600683946426A28461C
:10B6F00090473A46314620461030049BFBF78EF9BE
:10B7000005B0F0BD10B5044620463830FBF77CF993
:10B710000446383C2838FBF777F90446103C0C38CF
:10B72000FBF721FA041F204610BD000070B5054646
:10B730000B480078C007C00F00280FD1084800F060
:10B740008CF800280AD00748FFF7E0FB0446064AB9
:10B750000649FCF7ABFF0248C046C046014870BD31
:10B7600030210020A02500200060010085AF0100ED
:10B7700010B50446FFF706FF10BD01462020405CCF
:10B7800070470146C888704701460879704710B570
:10B790004838FFF7C1FC10BD10B54838FFF7C1FCB1
:10B7A00010BD10B5FCF79FFB10BD10B500F002F8FE
:10B7B00010BD000010B5040008D1012406E0FDF71B
:10B7C00057FA0068002800D1034880472046FCF75C
:10B7D00059FB0028F3D010BD4B980100F8B5040CBC
:10B7E0008BB2264682B25E43104658430D0C370C8E
:10B7F000360400218019164679416E43370C360411
:10B800008019264679416E438919F8BD4900CA025C
:10B810000243100000D004204A0D01D00122104341
:10B82000044A490D914201D102210843012800D167
:10B8300005207047FF070000FFB581B01C46174682
:10B840000E0007D0019D02E02846B047ED192046C2
:10B85000641EF9D2019805B0F0BD0168002901D03D
:10B8600000207047012101600846704710B5002094
:10B87000FDF7D1FF10BD000002486A46C008C000B5
:10B8800070470000A327002030380A2801D2012089
:10B890007047002070470000032801DA002070473D
:10B8A00081000748002209184039486B4A63002884
:10B8B00002D00168496808470020C0437047000073
:10B8C00024230020032801DA002070470649800065
:10B8D00040184038406B002802D001688969084749
:10B8E0000020C0437047000024230020032801DA11
:10B8F000012070470649800040184038406B0028FE
:10B9000002D00168C96808470020C04370470000A2
:10B9100024230020F0B50E4683B004464649FDF7C7
:10B9200027F8464D002815D045492046FDF720F858
:10B9300000281AD043492046FDF71AF800281FD0E6
:10B94000414F0025A8003858002824D06D1C102D28
:10B95000F8D36CE02868002804D10B2209213B4869
:10B9600000F08CFC002003B0F0BD2868002804D152
:10B970000B220921354800F081FC012003B0F0BD05
:10B980002868002804D10B220921304800F076FCF9
:10B99000022003B0F0BD102D49D220783A2811D0F2
:10B9A00021466846FFF78AFD6846FFF774FD0028C8
:10B9B0003DD06846FFF774FD0028684609D0FFF7C0
:10B9C0005AFD2DE06A4622A12046FCF7CDFC0098E6
:10B9D00026E0FFF743FD002829D0B10701D5022456
:10B9E00008E0710701D5012404E0310701D50924DD
:10B9F00000E000243107890F02D0012149020C43E5
:10BA0000710702D5012189020C4326460446684687
:10BA1000FFF752FD0146206832468368204698476A
:10BA2000002804D0A9007850E81C03B0F0BD002025
:10BA3000C04303B0F0BD0000C8CD01007420002059
:10BA4000CFCD0100D7CD0100242300207C20002091
:10BA50003A25700070B514460D4603280EDA0F48DB
:10BA60000068002804D10B2209210D4800F006FCD3
:10BA70000B4800F0F3FB287001200AE00949800020
:10BA800040184038406B002805D001688B68294673
:10BA90009847201A70BD0020C04370BD742000205C
:10BAA0007C20002024230020032801DA0020704796
:10BAB000064A800080184038406B002803D0026896
:10BAC0001369002218470020C04370472423002038
:10BAD00070B514460E46032814DA12480068002890
